:1020000000800020313A0000193A0000193A00001F
:1020100000000000000000000000000000000000C0
:10202000000000000000000000000000193A00005D
:102030000000000000000000193A0000853A00008E
:10204000193A0000193A0000193A0000193A000044
:10205000193A0000193A0000C53500001D3A000089
:10206000193A0000AD390000193A0000753300003C
:10207000193A0000193A0000193A0000193A000014
:10208000193A0000193A0000193A0000193A000004
:1020900000000000193A0000193A0000193A000047
:1020A000193A0000193A0000193A0000193A0000E4
:1020B0000000000010B5064C2378002B07D1054B1B
:1020C000002B02D0044800E000BF0123237010BDA4
:1020D0002001002000000000C4A50000044B10B542
:1020E000002B03D00349044800E000BF10BDC046E8
:1020F0000000000024010020C4A5000070B5194CA8
:10210000200001F091FA0121080001F0A1FEE12177
:10211000154D4902280002F0F5FB200001F03FFCBC
:10212000124C002368212000114A00F0FBF900281E
:1021300007D128000F4901F073FF0A2001F0E6FCE7
:10214000FBE72000022100F07CFA2000012100F0D2
:10215000A7FA0421200000F0BBFA642001F0D6FCAD
:1021600070BDC0468C0100208C0700204801002073
:10217000B80100201C9F0000F0B5A1B017AB0EAA5B
:1021800005A96B4800F04EFC0A980B9E011C04F058
:102190009DFB311C041C301C04F098FB011C201C0E
:1021A00004F02EF80C9D041C291C281C04F08EFB46
:1021B000011C201C04F024F803F046FE5D4F5E4E27
:1021C000011C3860306803F0E9FF5C4C002822D025
:1021D00001225B4B1A705B4B1A78002A18D0002240
:1021E0001A700022584B1A60584B1D68584B281C17
:1021F000196803F0D3FF0390002860D00025C8229F
:10220000A9B22000D205013501F093FB0E2DF6D1C5
:102210000122504B1A703168386803F0C9FF00285A
:102220003DD001224C4B4D4E1A704A4B1A78002A71
:102230000ED000251D7001F039FC494B306018604C
:10224000A9B200222000013501F073FB0E2DF7D159
:1022500001223C4B1A7001F029FC424B3268186095
:102260000290801A04F02AFE396804F02FFB3E49E0
:1022700004F062F9344D296803F0C2FF334B286043
:102280001860029B3360364B1868029B181A374B54
:10229000984204DD002320002B6001F080FB200029
:1022A00001F014FA294B186806F066FC0B000221B5
:1022B000020000912E4801F099FF21B0F0BD2D4B96
:1022C000281C196803F074FF0290002809D0039DB0
:1022D000A9B264222000013501F02BFB0E2DF7D1AD
:1022E00096E7254B281C1B68191C039303F060FF1D
:1022F00000280AD0029DC822A9B22000D2010135CF
:1023000001F017FB0E2DF6D182E70399281C03F08C
:1023100031FF002800D17BE7029DC822A9B220002E
:10232000D203013501F005FB0E2DF6D170E7C04652
:1023300048010020B4010020040000208C0100208E
:1023400044010020A5010020400100203C010020A4
:1023500008000020A401002045010020AC0100205D
:10236000A8010020B00100200024744980841E00D0
:102370008C070020100000200C00002070B50B4CD2
:10238000200000F0A3F80A4D20002A00094903F0BC
:1023900053FD094CD22301220E21200001F0B2FA94
:1023A0002A002000054903F047FD70BD48010020C8
:1023B00000000020E52400008C0100200D36000004
:1023C000704770477047704710B5040003F0A2FCD7
:1023D000200010BD10B5040003F09CFC200010BDCF
:1023E00010B5040003F096FC200010BD70B50C0081
:1023F000050028220021200006F02FFD0B222000DE
:10240000094907F0D8F800230122E372E260AA68C4
:10241000636222610422054BE361054B6261A361A3
:10242000044B236270BDC046389F0000D7A30BC287
:10243000D7A30B429AAB0B3970B50C0005002822CC
:102440000021200006F009FD0B222000084907F0BA
:10245000B2F800230122E372A9686362054BE361CD
:10246000054BE260A361054B21616261236270BD8F
:10247000429F00000AE81CC30AE81C4323DB793DA5
:1024800070B50C00050028220021200006F0E5FCB4
:102490000B222000094907F08EF800230122E37285
:1024A000E260AA68636222610D22054BE361054B7D
:1024B0006261A361044B236270BDC0464C9F000063
:1024C000000020C20000D24204AD403B044B083360
:1024D00003600023036243628362C3627047C046A5
:1024E000589F00000E4B10B5083304000360406A8B
:1024F000002802D003685B689847A06A002802D0D1
:1025000003685B689847E06A002802D003685B684C
:102510009847206A002801D003F0FCFB200010BD82
:10252000589F0000F0B50400006A8BB017001E0031
:102530000391002801D003F0EDFB102003F0E6FB2F
:10254000050003993A0000F084FB01212800256270
:1025500000F09CFB002802D100200BB0F0BD01234D
:102560000022216A00920193753204A800F086FAD5
:1025700004A800F029FB6828EED123683100200070
:102580001B689847E9E770B501240026050090B064
:1025900001940096016A23006B2204A800F06EFAF1
:1025A00023006822296A019400960AA800F066FABE
:1025B00004A90723220002A800F023FB210002A89F
:1025C00000F030FB02A800F020FB012802D101F04E
:1025D0009DFAF7E7642001F099FA002207210AA882
:1025E00000F096FA642001F091FA10B070BD30B599
:1025F000012300250C0089B001930095016A19227E
:1026000002A800F03BFA2A00210002A800F080FA9C
:1026100009B030BD0123002200B58BB001930092B8
:10262000016A1C3204A800F029FA0323022204A93B
:1026300002A800F0E6FA02A800F0E7FAC0B20BB078
:1026400000BD0123002210B50C008AB00193009256
:10265000016A1C3204A800F011FA0323022204A923
:1026600002A800F0CEFA210002A800F0DBFA0AB0BE
:1026700010BD0123002200B58BB001930092016AC6
:102680001B3204A800F0FAF90323022204A902A8CD
:1026900000F0B7FA02A800F0B8FAC0B20BB000BD63
:1026A0000123002210B50C008AB001930092016A48
:1026B0001B3204A800F0E2F90323022204A902A8B5
:1026C00000F09FFA210002A800F0ACFA0AB010BD99
:1026D00030B5012300250C008BB001930095016AF1
:1026E0001A2204A800F0CAF92B00032204A902A8A8
:1026F00000F087FA210002A800F094FA0BB030BD78
:1027000070B504000125002689B24B1C01860231F8
:1027100088B043868186FFF736FF00212000FFF74F
:1027200066FF00212000FFF7D3FF01212000FFF703
:10273000B7FF00212000FFF784FF2B006B22216AE6
:102740000195009602A800F099F93200290002A82C
:1027500000F0DEF9642001F0D9F9606AB04202D0DD
:1027600003685B689847A06A002802D003685B682A
:102770009847E06A002802D003685B6898471020F9
:1027800003F0C4FA0F4BC46008330360CA23DB00B4
:1027900083606062102003F0B9FA0B4BC460083309
:1027A00003600A4BA0628360102003F0AFFA084B6D
:1027B000C46008330360074BE0628360012008B007
:1027C00070BDC046809F00009C9F00005106000025
:1027D000649F0000520600000123F0B58DB0019304
:1027E00000230400009302AD016A0E333B2206A8C9
:1027F00000F044F90E22290006A800F0A8F92A7872
:102800006B7812021343E386AA78EB781202134323
:1028100023872A796B79120213436387AB79E879AE
:102820001B02184300B2A0872A7A6B7A1202134364
:10283000E387AA7AEB7A12021343A61CF3872A7B5A
:102840006B7B12021343271DFB8706F03FF9002222
:10285000314B04F0E3FE314A314B04F075FB06F0D6
:10286000D3F960602000FFF7D5FE03280BD08B253D
:10287000022809D08C25012806D08D25002803D0F8
:10288000FE25AD0501E08A25ED053623E05E04F066
:1028900015FB291C03F050FEA0603823E05E04F015
:1028A0000DFB291C03F048FEE0603A23E05E04F0D3
:1028B00005FB291C03F040FE20612000FFF7D9FE34
:1028C000002820D0012820D0022820D0032820D1A1
:1028D000144D3E23E05E04F0F1FA291C03F02CFEB7
:1028E00060613E23F05E04F0E9FA291C03F024FE47
:1028F000A0613E23F85E04F0E1FA291C03F01CFEFF
:10290000E0610DB0F0BD084DE3E7084DE1E7084D8B
:10291000DFE7FE25AD05DCE700407540A4703D0A09
:10292000D7434240333383410000034300008342D6
:102930003333034270B50C0005001600081D202239
:10294000002106F08AFA24232360AB8E63600D23F6
:10295000A3606B682661636170BD70B50400C068D8
:102960000D00FFF739FFE46801F09AF82900020032
:102970002000FFF7DFFF012070BD000070B50C00E4
:1029800005001600081D2022002106F066FA01232A
:1029900023602A8EA8686260A3602661074903F05D
:1029A00095FF6061E868054903F090FFA061286920
:1029B000024903F08BFFE06170BDC0460AE81C418C
:1029C00070B50400C0680D00FFF706FFE46801F071
:1029D00067F8290002002000FFF7D0FF012070BD3A
:1029E00070B50C0005001600081D2022002106F01D
:1029F00034FA012323606B8E6869636004232661C7
:102A0000A360074903F062FF6061A869044903F00D
:102A10005DFFA061E869024903F058FFE06170BD05
:102A200035FA8E3CF7B504000F001600019301F053
:102A300037F805002000FFF7CFFE2A00200001999B
:102A4000FFF778FF2A0039002000FFF797FF2A00E0
:102A500031002000FFF7C4FF0120FEBD70B5040067
:102A6000C0680D00FFF7B8FEE46801F019F829000E
:102A700002002000FFF7B4FF012070BD70B504AC68
:102A8000257805AC2678002446738573446101607F
:102A900044604281037370BDF0B50500408985B084
:102AA000030A9C4603ABC6B218802868002809D0E8
:102AB0006C7B00930194012300F0F6F804002000E1
:102AC00005B0F0BD6868041EF9D02F7A6C7B032F27
:102AD00009D101256746AF431F705E7064190094E9
:102AE00000F01EFAEAE7002F03D17F252E401E706A
:102AF000F5E7022F03D180256D422E43F7E7012F22
:102B0000EDD17F261D782E40402535431D70E6E728
:102B1000F8B50B00002A00D1027B0021042A14D84A
:102B200005000F35290043618418A0420AD0877B35
:102B3000DEB2002F04D12E701B0A0135013CF4E7F0
:102B4000A673F9E7FFF7A8FF01000800F8BDF0B58C
:102B50001600428905000B0085B0110A00688C46FA
:102B600003A9D7B20A80002809D000246A7B019407
:102B7000009600F000F90400200005B0F0BD686880
:102B8000041EF9D02C7A6A7B032C0BD16546023CDB
:102B90002C430C704F700132FF240096019400F01A
:102BA000F0F9E8E7002C03D1803C27430F70F3E7EE
:102BB000022C02D17D342740F8E7012CECD10D78AE
:102BC000413C2C430C70E7E770B505000F35290038
:102BD000027B0400FFF7BBFF00280FD00020237BFF
:102BE000E3189C420CD0A27B0002002A04D19A7BFD
:102BF0001043013B0135F4E72A78F9E70120404210
:102C000070BD016002714371704710B50400006827
:102C1000FFF7DAFF0123227993406279013BD0402C
:102C2000184010BD70B5050000680C00FFF7CCFF20
:102C300001212B796E79994001390B00B340214075
:102C400098430300B14028681943027BFFF760FFF7
:102C500070BD00230372FA3301704260C360704795
:102C600010B5037A0400002B0AD02178606800F0C8
:102C700037FA606800F0E5FA43425841C0B210BD2F
:102C8000012100F003F80028EFD1F8E770B5040047
:102C900040680D0000F004FA01202072002D02D0DF
:102CA0002000FFF7DDFF70BDF8B51E00079B150083
:102CB000D318C26804000F00934201D90020F8BD68
:102CC0000178406800F00CFA079B002B0FD1606878
:102CD0002A00036839005B6898478542EED13100CD
:102CE000606800F076FA43425841C0B2E7E7069BBD
:102CF000002BECD06068079A036806995B689847D8
:102D0000079B9842DAD1E2E7F8B505000F001600FC
:102D10000178D2B2406800F0FBF9002486420AD163
:102D2000A64207D9686803685B699847385501343B
:102D3000A4B2F5E701242000F8BDF7B5070016009E
:102D4000002400910193B44213D2FB68351B9D42CD
:102D500000D91D00019B721BA24200D90023009ADA
:102D6000380011192A00FFF7CFFF002802D064199C
:102D7000E9E70120FEBD73B5040000201D0006AB8D
:102D800040CB1B78019000902000FFF78DFF0028BA
:102D900005D00123320029002000FFF7CEFF76BDC9
:102DA000F0B5040000680E00150089B0002803D0BB
:102DB00000F07FFB09B0F0BD0122237B0292002BC3
:102DC00001D080230293029A3378A16813405A42BB
:102DD00053414D48DBB2059303F0F0F8C3B2302005
:102DE000032158430393019303F0E8F8310084462C
:102DF00073190793079B8B42DCD000220B78069354
:102E0000029B0398002805D00198002802D0604654
:102E10000138FDD1657BA069023D012D45D8102503
:102E20006557013512D0069E1E4035006F1EBD410C
:102E30000496059EB54209D0049E676A6569002E16
:102E40002ED02E683E432E60012505950568E66A62
:102E500035430560039D002D05D0019D002D02D056
:102E60006546013DFDD111256557013506D0E5695F
:102E7000A66A2D682E4201D01A43D2B20568E66ACE
:102E8000B543056011202056013000D00A70207B28
:102E9000002837D15B00DBB2002BB2D10131A9E7AA
:102EA0002E68BE432E60049DCFE70568E66A354371
:102EB0000560039D002D05D0019D002D02D06546C3
:102EC000013DFDD110256557013507D0069E656986
:102ED000676A334212D02E6837432F600568E66A6E
:102EE000B5430560112020560130CBD0E069A56ABA
:102EF00000680542C6D01A43D2B2C3E72E68BE436B
:102F00002E60EBE75B10C6E720A1070007B56B4614
:102F10000122D971D91DFFF743FF6B46D8790EBD49
:102F2000F7B50400006816001D000191002803D0C9
:102F3000636806CB00F088FA0E200021205600F0CE
:102F4000B7FF089BEF18BD4209D1019DAE19AE42F3
:102F50000BD029782000FFF7D9FF0135F7E7297852
:102F60002000FFF7D3FF0135EDE70E2001212056A9
:102F700000F09EFF2068002801D000F081FA0120B7
:102F8000FEBDF7B5009308AB04001600006804CB43
:102F90000D001F780192002803D0636806CB00F073
:102FA00053FA0E200021205600F082FFAE19B542E0
:102FB0000BD1009D019BEE18AE420CD039002000D1
:102FC000FFF7A4FF28700135F6E729782000FFF706
:102FD0009DFF0135EBE70E200121205600F068FF30
:102FE0002068002801D000F04BFA0120FEBD00202F
:102FF0007047F8B505000E0017000024BC4208D049
:103000002B682800315D1B689847002801D00134E7
:10301000F4E72000F8BD70470300FC33196ADA6951
:10302000914203D01B6AC018007E704701204042C5
:10303000FBE70300FC33D8691B6AC01A01D50130D5
:10304000FF307047F7B50193FA238027002504006D
:103050009B008360114B7F0008330E004560290000
:10306000009203603A00183005F0F7FE23002000BC
:10307000FC332130DD613A001D622900FF3005F08C
:10308000ECFE87239B00E3185D609D60009B2000A1
:103090002375019B2661A5756375FEBDB89F000071
:1030A00070B5040018260C49006901F067FB20691F
:1030B00001F0CEF933000821207D084D4343EB1881
:1030C000595600F021FF0821607D4643AD1969562D
:1030D00000F01AFF70BDC046A0860100A8A0000045
:1030E0008A2300229B00C1540C3BC3185A609A608B
:1030F0000123837570470200FC32536810B5013319
:103100009468DBB29C4202D054680155536010BDF4
:10311000F7B5019300230400150018009A422FD040
:103120002200FC32D36120691362012201F0CEF942
:10313000002826D02700206901F04AFA183701003C
:103140003800FFF7D8FF01262069B5420ED001F004
:103150009DF90221206901F0A3F9206901F038FAF4
:1031600001003800FFF7C7FF0136EDE701F085F9F0
:10317000019B002B03D00321206901F091F9E8B2F3
:10318000FEBD0500FBE710B50300827D00208242F2
:103190000ED0872292009C186268A4680132D2B2D5
:1031A000A24205D02133FF331800FFF7A4FF01200E
:1031B00010BD0300FC3399685A68914206D09A68A2
:1031C000805C9A680132D2B29A6070470120404216
:1031D000FBE700228A2370B59B00827505000E0074
:1031E000C15C006901F072F9002806D10321286949
:1031F00001F056F90224200070BD872328009B00AF
:10320000EA18536894682130FF301C1B01D5013443
:10321000FF34002C0ED02C69FFF7CBFFC1B2200089
:1032200001F092F90028E8D10321286901F038F96A
:103230000324E0E7002EDED00321286901F030F9F5
:10324000D9E710B50121FFF7C4FF10BD10B5183044
:10325000FFF7AFFF10BD70B50400006901F096F9EB
:10326000002814D0206901F09FF9002810D02069AF
:1032700001F00CF90321206901F012F98C239B0065
:10328000E558002D39D10023FC34E361236270BD81
:10329000206901F093F9002809D0206901F089F92B
:1032A000002804D0206901F08EF90028DFD02069C1
:1032B00001F084F9002826D1206901F070F9002876
:1032C000E5D0206901F07FF9002837D087239B00E3
:1032D000E218536892689B1A01D50133FF33FF212E
:1032E000002B05D020002130FF30FFF762FFC1B274
:1032F000206901F03CF9A075C9E7236820001B692B
:103300009847A847BFE7206901F0C0F8206903216A
:1033100001F0C6F8206901F056F90028B7D08723DC
:1033200000229B00E3185A609A600123A3758B2347
:103330009B00E3589342AAD09847A8E72200FC32AA
:10334000D369126A0133DBB22069934206D101F0DE
:1033500094F80321206901F0A3F898E701F038F907
:10336000010020001830FFF7C6FE206901F08EF83A
:10337000EFE7000010B50248FFF76DFF10BDC04633
:10338000B801002010B50223002202490248FFF7CD
:1033900059FE10BD7C070020B8010020F0B50400E4
:1033A00085B01E000AAB1B78103001930BAB1B7865
:1033B000170002930CAB1B780D00039300F0D0F8BC
:1033C0002000243000F0CCF8220000234832A36310
:1033D000E363236463641370537063729D4205D189
:1033E0002721084B084A094805F0B4FC2000019B3E
:1033F00025606371029B2771E371039BA6712372A1
:1034000005B0F0BDDC9F0000ED9F000041A0000072
:1034100030B5040085B002AD00680291039200F05F
:10342000D3FF6B79227AE17920680093002301F0C1
:103430007BF92979029A206800F0EAFF206800F001
:10344000B9FF05B030BD000007B5837A0091019245
:10345000002B07D09A070AD5EFF310835A42534145
:10346000C37272B60099019AFFF7D2FF07BDDB075E
:10347000F8D5C368014A9BB29360F3E70018004097
:10348000837A002B05D09A0704D5C37A002B00D08D
:1034900062B67047DB07FCD5C368024A9BB2D360B3
:1034A000F7E7C0460018004010B5006800F095FF2F
:1034B00010BD70B505000C008E18B44206D02178FE
:1034C0002800FFF7F1FF20700134F6E770BD00001F
:1034D0001FB5094B094A0A491A6000229A80012344
:1034E00002930193033300930632013B0548FFF733
:1034F00055FF05B000BDC0463804002000093D005E
:1035000074070020EC030020084B1968002909D13A
:10351000EFF31080064A002803D172B6BFF35F8F25
:10352000013111701A6801321A607047440400209A
:1035300040040020084B1A68002A0CD01A68013A8F
:103540001A601B68002B06D1044B1B78002B02D09D
:10355000BFF35F8F62B67047440400204004002030
:10356000FF2310B50370C023002104009B004170AD
:10357000418083800C22083005F06FFC200010BDD4
:1035800001230A0010B51A40194208D00C4A1370E2
:10359000033343708368002B00D0984710BD02238B
:1035A000194204D006490B70C3684270F3E7042344
:1035B0001942F3D0024A1370033343700369EAE7F8
:1035C0004E48004110B5FFF79FFF0C4B1B8C1B07AB
:1035D0001B0F0B2B0FD80A4A9900885800280AD0D5
:1035E0000F2408490A78A24313430B70064B19783D
:1035F000C9B2FFF7C5FFFFF79DFF10BD00480041AE
:10360000480400203F4800414E48004110B50400E6
:10361000C06805F00FFC0623E05E002802DB0021F5
:1036200000F016FC200010BD10B504000623C05E9B
:10363000002807DB012100F00BFC00210623E05EDF
:1036400000F036FC0123637010BD70B50500C06842
:103650000E0005F0EFFB2B7CEC7CE41A631E9C4112
:1036600003347443A4B22000AC8005F0D9FBE860B9
:10367000002805D02200002105F0EFFB6E8070BD10
:10368000A8806880FBE70322F8B58B110D118E101E
:103690001640134015400A40467482740026FF22EB
:1036A0008A427641C268C47C077CC3740574067084
:1036B000002A0AD0E21B5B1B51424A4159424B414E
:1036C0009A4202D04188FFF7C0FFF8BDF8B5C36841
:1036D0000400002B00D1F3E096256D00666900F030
:1036E000E5F9864202D900F0E1F9606100F0DEF907
:1036F0006369C01AA842F1D372B60622A35E1822EB
:10370000012053436F4FA688FA185268DB5D904042
:10371000E268DB0115789619511C6B4A9F186B4AB9
:103720009B182278002A00D058E0803294463860F6
:10373000C046C046C046C046C046C046C046C04659
:10374000C046C046C0462A4200D192E0C046C046AC
:10375000C046C046C046C046C046C046C046C04639
:10376000C046C046C046C046C046C046C046C04629
:10377000C046C046C046C046C046C046C046C04619
:10378000C0461860C046C046C046C046C046C04697
:10379000C046C046C046C046C046C046C046C046F9
:1037A000C046C046C046C046C046C046C046C046E9
:1037B000C046C046C046C046C046C046C046C046D9
:1037C000C046C046521000D170E0D2B2C046C046DA
:1037D000C046C046C046C046C046A8E780229446C0
:1037E0003860C046C046C046C046C046C046C04617
:1037F000C0462A4221D0C046C046C046C046C04648
:10380000C046C046C046C046C046C046C046C04688
:10381000C046C046C046C046C046C046C046186006
:10382000521020D0D2B2C046C046C046C046C046A4
:10383000C046C046C046C046D2E71860C046C04633
:10384000C046C046C046C046C046C046C046C04648
:10385000C046C046C046C046C046C046C046C04638
:10386000C046C046DCE7B14226D20D78624601313F
:10387000B6E71860C046C046C046C046C046C0460F
:10388000C046C046C046C046C046C046C046C04608
:10389000C046C046C046C046C046C046C046C046F8
:1038A000C046C046C046C046C0466BE7B14203D2E0
:1038B0000D78624601313AE762B600F0F7F86061D0
:1038C000F8BDC046A8A000001844004114440041BF
:1038D00070B5437804000D00002B06D00623C05EAF
:1038E000002802DB002100F0B3FA6378E580002BAA
:1038F00007D00121280000F0ABFA0021280000F0D9
:10390000D7FA70BD70B5040000200E001500190034
:1039100060702072E06060612000FFF7B4FE31004B
:103920002000FFF792FE29002000FFF7D1FF2000C2
:1039300070BD4388F7B58B4219D9037A150C140A68
:10394000002B15D1E4B2EDB20194D6B2B446047C9A
:10395000C67CC768B44217D1032359437F18037C40
:10396000019AFD54437CFA546246837CFA54F7BDB5
:10397000FF26344035405C4316405D435E43240AD5
:103980002D0A0194360AE1E789007F18120E002BF8
:1039900002D1D3B2BB55E2E753431B0AFAE710B595
:1039A00000218288C06805F058FA10BD10B50248A1
:1039B00002F090F810BDC0467804002013B50D4CFD
:1039C0000D49200000F060FC0C490D4800F05CFC43
:1039D0000C490D4800F058FC0C490D4800F054FC0F
:1039E000032201232100019300929B18094802F051
:1039F00007F813BD7407002000080042000C0042C5
:103A000078070020001000427C07002000140042CC
:103A10008007002078040020FEE70000034B10B56B
:103A20001B68002B00D0984710BDC04684070020BB
:103A30000F4A1048110010B50F4B824202D093423A
:103A400009D11300824209D100F084F802F03CF958
:103A5000FEE710CB10C18142FBD3F3E7074A8B424C
:103A6000F2D00021064B9A42EED202C2FBE7C046DA
:103A70000000002020010020C8A500002001002037
:103A80008C0D002010B500F062F8002801D100F084
:103A900053F810BD014B18607047C04684070020E2
:103AA000014B18687047C04688070020F7B51348D7
:103AB000012284461249134C8E68636805689B0E88
:103AC0001340019288686268019F920E3A406746EF
:103AD0003F6893420ED1BD420CD186420AD35B1996
:103AE000FA254868AD00861B07486B437043000DFC
:103AF000C018FEBD3D0013000600E3E78807002064
:103B000010E000E000ED00E05555000070B5041E27
:103B100011D0FFF7CBFFFA260500B60000F016F82B
:103B2000FFF7C4FF401BB042F8D3FA23013C9B00CF
:103B3000ED18002CF4D170BD10B5034A13680133A1
:103B4000136000F06FFB10BD880700207047002055
:103B5000704700001E22F0B5504851494368514D4E
:103B600093431A0002231343436008238A691343D3
:103B7000FE228B612B68D2039B0213404A4A1343F7
:103B80004A4A936113000422DC681442FCD00124E9
:103B9000474A14701678264203D0567876B2002E23
:103BA000F8DB01249460547864B2002CFBDB414CB8
:103BB0005460547864B2002CFBDB8224E40154800E
:103BC000547864B2002CFBDB02249C840E34DE6843
:103BD0002642FCD0384CDC621024DE682642FCD041
:103BE0002C68A40E3F2C00D1203C9E6A334FA402C7
:103BF0003E4034439C629C6A314EA40AA402344382
:103C00009C62304CDC6200249C841034DE682642C6
:103C1000FCD02D4C9C841024DE682642FCD002246B
:103C20009E8C34439C841024DE682642FCD0002401
:103C30009460547864B2002CFBDB244C54605478BC
:103C400064B2002CFBDB1C6A214E344080261C62CF
:103C50001C6AB4431C62032393601E4B5360537869
:103C60005BB2002BFBDB0023FF240B721A4A4B7262
:103C70008B72CB72194B1A60194A2B6811689A061D
:103C80005B01C90E2340520F12020B431343154A26
:103C900013858023426813434360F0BD0040004118
:103CA0000004004024608000060600000008004078
:103CB000000C004001040100B905FF7DFF03FFFF78
:103CC000FF01000080BB0A1C240500000007030060
:103CD000FFFCFFFF03060100006CDC021400002063
:103CE0002060800000400042FA212E4B10B5186879
:103CF000890002F063F9802301385B0498424FD2B7
:103D000029492A4A4860C020136A00061B021B0A80
:103D10000343136200238B6007330B608021136A17
:103D200009061B021B0A0B431362FC22204B196A73
:103D30000A431A62FF22196A12020A431A62A02277
:103D4000196AD2020A431A621A4B1C005A7852B2FC
:103D5000002AFBDB184A5A80184B1A00597EC90901
:103D60000129FBD0C821890099800521D970537E93
:103D7000DB09012BFBD0C02300205B011361907095
:103D800000F022F863785BB2002BFBDB0C4B0D4A92
:103D90006380D379DB09012BFBD04123537010BD25
:103DA000FEE7C0461400002010E000E000ED00E057
:103DB00000040040000C00401E4000000040004293
:103DC00021400000004800421F4900B50B004A7E18
:103DD000D209012AFBD001380A282FD802F0E4F8D2
:103DE0001B2E2E2E2E2E062E2E2411001A69174958
:103DF0000A400F211A615A788A43110001220A43AE
:103E000010E01A6911490A400F211A615A788A4351
:103E100011000322F3E71A690C490A400F211A61C5
:103E20005A788A435A7000BD1A6908490A400F211E
:103E30001A615A788A4311000222E0E7F0221969D8
:103E400012050A43F3E7C04600400042FFFFFFF0BF
:103E5000182310B508245843134A13181C5701346B
:103E600012D001245B6882569C4003290CD80800BC
:103E70000E49D2015218D318403302F095F80210BF
:103E8000060B02211970546010BD06211970546090
:103E90009461F9E70621197054605461F4E7022136
:103EA00019709460F0E7C046A8A0000000440041EB
:103EB0001823F0B508245843114A13181C5701342D
:103EC0001BD0012635005F688356BD400D4ADB01DB
:103ED0009A18906805420BD10C00601E8441D219DB
:103EE0004032107834400336A400B04320431070B1
:103EF000044A9B18002901D15D61F0BD9D61FCE77A
:103F0000A8A0000000440041182370B508264343D0
:103F10002A4AD518AE573400013607D0072907DCE6
:103F200000291DDA01314C424C416442200070BD31
:103F30000B00083BDBB20024032BF7D8092903D17F
:103F40002100FFF785FFF1E70A2904D10839FFF7BF
:103F50007FFF0024EAE700240B29E7D10A39F0E7C4
:103F60006C68012520009B56C9B262082840DB011D
:103F70002C4211D012480E351B189A183032107886
:103F8000090128400143C9B2117041221B19403375
:103F900019780A431A70DCE70F26094D5B199A1845
:103FA000303215781B19B543294311704122403333
:103FB000197804000A431A70B8E7C046A8A00000A8
:103FC00000440041F8B505000E0017000024BC4273
:103FD00008D02B682800315D1B689847002801D065
:103FE0000134F4E72000F8BD70B505000C00081E90
:103FF00007D005F0D9FA2B680200210028005B6881
:10400000984770BD10B503681B68984710BD000045
:1040100010B50249FFF7E8FF10BDC046D0A200006E
:1040200070B50400FFF7E0FF05002000FFF7F0FF88
:10403000401970BDF0B58BB06B46140000220533FB
:1040400007000D00DA77012C00D80A2409AE2800F9
:10405000210002F039F80300CAB2080029001D004F
:1040600013003733DBB2092802D813003033DBB238
:10407000013E33708C42EAD931003800FFF7B4FFBB
:104080000BB0F0BDF7B51C0008AB1B782100009306
:10409000070023001000150004F0C4FC4A49002862
:1040A0001ED101226600760828003100474B52429B
:1040B00004F0B8FC002809D1012231002800434B4C
:1040C000524202F027F84249002809D0E022280095
:1040D0002100404B120602F027F8002806D03E4986
:1040E0003800FFF781FF06003000FEBDE022280007
:1040F00021003A4B120602F003F80028EFD100220B
:1041000000232800210001F0FBFF002814D02D21FE
:104110003800FFF777FF80231B060190E418002684
:1041200000202F49009BB34208D000222D4B0136BE
:1041300003F074FAF6B2F5E70190F0E72A002300E5
:1041400002F002FF0D00040002F03CF8060004F04B
:10415000EDFC0B0002002900200004F0D1F80A2237
:1041600004000D0038003100FFF764FF019BC61802
:10417000009B002B04D038001B49FFF735FF361891
:10418000009B013BDBB20093FF2BADD0154B00220F
:104190002000290003F048FE0D00040002F012F890
:1041A0000A22010001903800FFF744FF36180198F9
:1041B00004F0BCFC02000B002000290004F0A0F871
:1041C00004000D00DCE7C046D3A20000FFFFEF7F34
:1041D000D7A20000FFFFEF41DBA20000FFFFEFC10D
:1041E0000000E03F00002440DFA2000037B5069940
:1041F0000400C9B20091FFF745FF05002000FFF75A
:1042000007FF40193EBD0000014B18607047C046D3
:10421000180000200122024B52421A607047C0462B
:1042200018000020124A1368591C20D0013B13606B
:10423000002B1CD172B60F4B01221900187D1042C1
:10424000FCD02022188BFF3202431A830A4ADA611B
:104250000A4A1A8001230A7D1A42FCD0BFF34F8F0D
:10426000074B084ADA60BFF34F8FC046FDE770473F
:1042700018000020004000410210000002A5FFFFCE
:1042800000ED00E00400FA05016070479446F0B5C7
:1042900005AC25789C1E621E944162460668920712
:1042A000376824063A4322430724326000682140DD
:1042B000AD01002442682943022B00D05C030A436D
:1042C00022434260F0BD30B5C0250368AD031C68D1
:1042D00012052A402243C0240904A40221400A43B3
:1042E0001A6003685A6814435C6030BD0123026899
:1042F00011680B43136003681A68D207FCD4DA69AB
:10430000D207F9D470470223026811680B43136087
:104310000268D3699B07FCD4704703681A7ED207F2
:1043200002D41A7E9207FCD57047002203685A8394
:1043300070470368187E4007C00F70470368187EF7
:10434000C0097047802302685B42117E0B431376DD
:1043500070470368588B8007C00F704702230268BC
:10436000518B0B43538370470368187EC007C00FFF
:1043700070470368188DC0B2704703681A7ED20771
:10438000FCD589B2012019857047012203689A750E
:104390007047012203681A7570470123026811688B
:1043A0000B43136003681A68D207FCD4DA69D2079A
:1043B000F9D470470223026811680B431360026846
:1043C000D3699B07FCD470470368DA699207FCD471
:1043D00002211A688A431A6070470268936A5B0A6E
:1043E0005B020B43936203681A7E5207FCD5986AFE
:1043F000C0B2704710B50548490001F0DFFD80B23A
:10440000002801D0013880B2C0B210BD006CDC02BF
:1044100070B50C0001261100630802683340344077
:10442000156824075B0723432B4313600468FFF7D9
:10443000E1FF207370BD0123026811680B43136014
:1044400003681A68D207FCD4DA69D207F9D4704736
:104450000223026811680B4313600368DA6992074C
:10446000FCD430215A8B8A43110010220A435A830C
:104470000268D3695B07FCD4704780230268DB02C3
:10448000116851680B43536070470000036803498B
:104490001A685A680A405A607047C046FFFFFBFF1F
:1044A000032230B5036811401C68074D5A6809049F
:1044B0002A40E4061143640F5960052C03D10268B9
:1044C000D3695B07FCD430BDFFFFFCFF30B5036848
:1044D0000400588B8006800F022813D05D8B0020CB
:1044E000AD06AD0F032D2ED0588B800705D55D8B03
:1044F0000020AD06AD0F012D25D15D8BAD06AD0FB2
:10450000281E20D04800596A1043C90AC0B2C90207
:10451000014359622368002A08D11A7ED207FCD5CC
:10452000588B01234007C00F58400CE01A7E9207B9
:10453000D00F002AF4DB1A7ED207F7D5C0225968C3
:1045400092020A435A6030BD03682833197002682A
:10455000137EDB07D80F002B03D1538BDB07F7D576
:1045600070470123508B4007C00F5840F8E703689D
:10457000283319700268137E5B07D80F002B04DA0A
:104580000123508B4007C00F5840704703681868DC
:10459000C006400F043843425841C0B27047036818
:1045A000187E4007C00F70470368187EC007C00F11
:1045B00070470368588BC006C00F70470368187EA9
:1045C0008007C00F70470368588B0007C00F704703
:1045D00003681A68D206520F052A02D11A7E920782
:1045E000FCD528331878C0B27047000003680B4A26
:1045F00093420DD00A4A93420CD00A4A93420BD000
:104600000120094A4042934201D1043040B2704730
:104610000020FBE70120F9E70220F7E7000800424D
:10462000000C00420010004200140042F8B5FFF7F1
:10463000DDFF00282CDB1D4BC00018180523047972
:10464000C3560320FF221840C0008240C021D2433D
:104650008140002B1DDB1F2501201D40C026A840E6
:10466000134D7600A851C0269B089B005B19B6002D
:104670009F593A401143995128603F232340802499
:10468000E4011C430B4B5C805A7852B2002AFBDBDE
:10469000F8BD0F200340083B07489B089B001B18F0
:1046A000D86902401143D961E7E7C046E4A200009F
:1046B00000E100E0000C004000ED00E0F8B504006F
:1046C0000F0016001D00FFF7B1FF2000FFF70EFEE0
:1046D0001C21BB000B4071072268090C0B431360BF
:1046E000842322689375012F1AD11021012E00D046
:1046F00008390C4B69431868C00001F05FFC0722C1
:10470000216802408B895203DB04DB0C13438B814D
:10471000226803049089DB0C400B4003184390810E
:10472000F8BDC04614000020F7B50500019308ABA2
:104730000C0016001F78FFF730FE2800FFF776FF09
:10474000C021C022890224040C409203BF07360511
:10475000274316403E430C2707222B683E431E602A
:10476000019B296813401A0080239B0213434B606E
:104770002A68D3695B07FCD4F7BD0000F8B50400D4
:104780000F00FFF753FF2000FFF755FE14222368A8
:1047900079001A600C4B25681E68300001F00EFC91
:1047A0000A490400300001F009FC7D23FA21584336
:1047B000C90001F003FCFF23241AE868053C1C40F3
:1047C00098430443EC60F8BD1400002040420F0001
:1047D0003F20704713B56B460268D97107335468A0
:1047E00019000122A04716BD10B50221006900F092
:1047F00029FC10BD10B50321006900F039FC10BD83
:1048000010B51300084A0400D279002A03D101230D
:104810000020636010BD0A000069032100F020FD44
:104820000028F4D0F6E7C0462000002010B5054C63
:1048300003002068421C04D11A681800526990478E
:10484000206010BD6C000020074A0300106810B5FE
:10485000411C03D001235B42136010BD0221186983
:1048600000F0F0FCF9E7C0466C00002010B50378BA
:104870004222023303700249024800F09DFD10BD40
:1048800028000020A807002010B501780300427816
:104890000020A12908D1212A05D1174917481A3A21
:1048A00000F08AFD012010BD2129FCD1202A13D15E
:1048B00011491248193A00F01FFC96220E4BD20003
:1048C000196891420ED1DA7901231A420AD1FA20ED
:1048D000FFF79AFC0020E6E7222A06D19A78064BD9
:1048E000DA71EAE7FFF796FCF4E7232ADBD15A886E
:1048F000034B1A60D7E7C04620000020A80700201D
:104900001C00002070470000FA220021054B920095
:104910009A60054A08321A60044A59601A61197689
:104920007047C0468C07002004A30000A8070020A1
:10493000704770B50F26CB1D02003240D5B22C0057
:1049400000093034092A00DD07341C705A1E9942D0
:1049500000D170BD1300EFE710B50400806904F0CA
:1049600069FAA06A04F066FA200010BD10B50400D0
:10497000FFF7F2FF200001F0CDF9200010BD00008C
:1049800070B5032908D1324B8000C058002802D0EE
:104990000368DB68984770BD82291FD1C3B22D4DD3
:1049A0005A01AA1891692C4C80010C40C02189053C
:1049B00021439161294908334018802150612A68B8
:1049C0005B01D01804794942214301717020995C40
:1049D00081430800302101439954DCE70029DAD1F2
:1049E000C024C1B21B4E4A01B21893681A4DA405E7
:1049F0002B40234393601A4B8001C0180B0050607A
:104A00003068072608335B01195CB1430E000121B1
:104A10003143195491690D402C43946170240F491E
:104A20005161195CA1430C00102121431954916874
:104A30000C4CC3180C4080214903214391609168BC
:104A4000890B89039160402259790A435A71A2E780
:104A5000AC070020600C0020FFFFFF8FD407002070
:104A600094090020FF3F00F0EFF31083036001235F
:104A7000436072B670470368002B02D162B6BFF381
:104A80006F8F704737B5056904006846002D14D153
:104A9000FFF7EAFF019B621D013B02D3D57FEDB218
:104AA000FAE768460193FFF7E6FF002D01D10020E9
:104AB0003EBD206AE369C01AFAE7FFF7D5FF22007E
:104AC0000025019B3432013B02D31578EDB2FAE7A1
:104AD00068460193FFF7CFFF002DE8D0206BE36A13
:104AE000E9E70000F0B5FF250126426883681168F8
:104AF0002B405B01CC186419A77AD3183E43A672E9
:104B0000C6689C680B4FB60436093C4034439C6031
:104B100083682B405B01D2189468A40BA4039460B3
:104B2000402283682B4008335B01CB1819790A4374
:104B30001A71F0BDFF3F00F0F7B5056904000E00E3
:104B400017006846002D43D1FFF78EFF019B601DC3
:104B5000013B5A1C0BD0C27F591E002A05D1684662
:104B60000193FFF788FF2800FEBD0B00F1E76846C0
:104B70000193FFF780FFE369AF420AD0226A9A42AD
:104B800007D95A1CE261A269D3181B787355013505
:104B9000F1E7226A9A42E6D10023E36101336846D5
:104BA0002361FFF761FF22000021019B671D013B8C
:104BB0003532581CD3D0F97710785E1E002805D006
:104BC000200011700193FFF78DFFECE73300F0E751
:104BD000FFF74AFF2000019B3430013B5A1C06D0EE
:104BE0000278591ED5B2002AB9D00B00F6E7684604
:104BF00001930025FFF73FFFE36ABD4202D0226B1D
:104C00009A421CD8226B9A42ADD100236846E362D7
:104C10002361FFF729FF270022000021019B343781
:104C2000013B3532581C9AD0397010785E1E00282E
:104C30000DD0200011700193FFF754FFEBE75A1CD1
:104C4000E262A26AD3181B7873550135D4E73300AA
:104C5000E8E7F7B582684368D2B211000400083172
:104C6000186849014118C879C00729D501255201A2
:104C7000CD719B189A6861699204920C002923D126
:104C80002262226A002A41D0A26A656168465A609F
:104C9000FFF7EAFE342294462200019B671D013B88
:104CA000A4443532591C2DD06146FD770978581E31
:104CB000CEB2002905D0019368461570FFF7DBFEE0
:104CC000F7BD03001670EDE72263226B002A1DD0AA
:104CD000002227006261A26968465A60FFF7C4FE9D
:104CE000019B621D9446013B34373032591C09D078
:104CF00061463D70C97F581ECEB20029DBD103004A
:104D00001670F3E768460193FFF7B5FE2000FFF742
:104D1000E9FED5E713B56A4600230C00D01DD37118
:104D2000FFF7A4FD23681818206001F02BF86B46EC
:104D3000D91D00F0F3FF236818186B462060D8795E
:104D400016BD000003290ED180220E4B62311B6874
:104D5000FF31585C524202435A5468226339FF3291
:104D6000FF39995470470129FCD18022054B243129
:104D70001B68FF31585C524202435A54282223399F
:104D8000FF32EDE7600C002070B500252F4B0121AC
:104D9000040016201D70FFF75BF801211620FFF7B5
:104DA00087F82B4B012115201D70FFF751F80121C9
:104DB0001520FFF77DF82023264A0F20D1690B43E9
:104DC000D361012224490B7813430B70234B1978CC
:104DD0008143197006211D782943197020490D78E7
:104DE0002A430A701A7802401A70602219780A431E
:104DF0001A701C4B1C4A5A805A78D209FCD11B48A5
:104E0000FEF748FE1A4D280000F0D0FF280000F001
:104E1000E3FF7F212B68C1201A7880000A401A70B6
:104E2000042219780A430C211A701A898A431149FD
:104E30001A810A581202120A0A5080220A6019784E
:104E40007E3A0A431A700123237070BDC9070020FF
:104E5000C807002000040040584400413C44004181
:104E600059440041000C0040064000004158000039
:104E7000600C002000E100E00078002810D0012143
:104E8000084B1B681A898A431A810822198B0A4326
:104E90001A830422198B0A431A830022024B1A60D8
:104EA0007047C046600C0020580C00200A000E49D4
:104EB0008B699B0B9B038B610B680221FF3319727B
:104EC0009879823901439971197A8907FCD57F2035
:104ED000064B0240997A8143114380229972997A54
:104EE00052420A439A727047600C00200050004101
:104EF00010B50B790C00002B0CD10800FFF7C4FC97
:104F0000002801D0012010BD094A93699B0B9B0327
:104F10009361F7E700F036FF210000F023FF00283F
:104F2000F0D1034A93699B0B9B039361EBE7C04667
:104F3000600C0020F7B50D001100832A19D1EBB2E7
:104F4000324C5A01A21891693148AD010840C02184
:104F50008905014391612F4920686D18702108333C
:104F600055615B011A5C8A43110040220A431A54BE
:104F7000F7BD022A45D1284AAB009858002802D034
:104F800003685B699847382000F0C0FE234B8027F8
:104F9000036000231D4E7F00421D036203614361D5
:104FA000C36146608560C760D3772F32C3620363F5
:104FB000040013703800537003F032FF0190A061B9
:104FC000380003F02DFFEBB25A01A062B2189168CD
:104FD0000F4808330840C0218905014391603168BA
:104FE00007265B01585CAD00B04306000320304348
:104FF0005854019B20005360FFF774FD064B5C5131
:10500000B6E72800FFF7BCFCB2E7C046600C002002
:10501000FFFFFF8FD4070020AC07002030A3000063
:1050200070B505000124064BA200D258002A05D015
:1050300021002800FFF77EFF0134F4E770BDC04671
:1050400070000020084B8A00D05810B5002803D00B
:1050500003689B68984710BD044BC9B249015918B1
:1050600088688004800CF6E7AC070020600C002004
:1050700010B50C00FFF7E6FF00280CD0064BE4B299
:1050800019688023083464010C1962795B42134368
:1050900063710223E37110BD600C002070B5CBB2C8
:1050A000124A13485C0189018918021951609168FC
:1050B000104D08330D40802189022943402591601D
:1050C0009168890B8903916001685A018A181679E1
:1050D0003543157195796D06FCD55B01C918CB79FF
:1050E000DB07FCD500198068C0B270BD94090020B0
:1050F000600C0020FF3F00F070B5140040220B4B05
:105100000D001B68FF3359790A435A710021FFF7DC
:10511000C5FFA04200D9200000230549A34203D0C7
:10512000CA5CEA540133F9E770BDC046600C002048
:105130009409002010B50C48C9B24901421893687F
:105140009B049B0C3F2B0BD99468403B9B04A40B06
:105150009B0CA4032343936041188868C0B210BD20
:1051600093689B0B9B03F6E7600C0020F0B51C00D6
:105170002F4B85B01B6806000D000192002B54D008
:105180002C4F3B78D9B2002B02D11520FEF790FEB0
:1051900064233B70284BAA00D058002808D003682D
:1051A00022005B68019998470400200005B0F0BD1B
:1051B00029003000FFF746FF844204D9290030005F
:1051C000FFF740FF040029003000FFF7B3FF012183
:1051D000EBB21A4F03935B010293029A3B6801986A
:1051E0009B18FF335A7A0A435A72154BA9012200C1
:1051F000C91803F029FE002CD7D029003000FFF792
:1052000021FF0028D1D14021039B3A6808335B017C
:10521000D3181879014319710121D971029BD31850
:10522000FF339A7A0A439A72BFE701246442BCE7CB
:10523000580C0020C8070020AC070020600C00209C
:105240009409002013B56B46DC1D22000123FFF7F3
:105250008DFF012801D1207816BD01204042FBE7D7
:10526000F0B51C003A4B85B01B680E000192002B74
:105270003FD08023DB019C423BD8364D2B78D9B2FE
:10528000002B02D11620FEF713FE642300272B709B
:10529000314BB201D3180293002C2CD02F4B1B683A
:1052A0000393FF2333401D0000930835039B6D01DA
:1052B0005D19AB79DB0921D0294B2A49186800F028
:1052C0007DFE294B1721584300F078FE274BEA79E1
:1052D000920713D49A5D002A01D10138F7D2012236
:1052E0009A55009B5A011D4B9B189A69920B920389
:1052F0009A6101277F42380005B0F0BD00221B4BA8
:1053000025009A55402C00D940252A000199029881
:1053100003F09AFD009BA9045A01104B890C9B18BD
:10532000029A7F195A619A69641B920B92030A438D
:105330009A61009B039A08335B01D3180222DA7149
:105340005979823A0A435A71019B5B190193A3E789
:10535000580C0020C9070020D4070020600C002052
:105360001400002040420F0070110100CB07002004
:1053700070B50C001D000D4BA601F6181100300091
:105380002A0003F061FDE4B2094A64011419666160
:10539000A369084928000B40A361A169AB04890BEC
:1053A0009B0C89031943A16170BDC046D40700203E
:1053B000600C0020FF3F00F0F7B5104B0F001B788A
:1053C00014000190002B0CD10D4B16001D78002D00
:1053D00009D00C4E0C48358828182D1903F034FDDF
:1053E00035802000FEBD002EFBD033007A1900214D
:1053F0000198FFF7BDFF2D18361AF4E7540B002073
:10540000550C0020560C0020550B0020F8B500204C
:105410000D00140000AF012A27D9D31D6A46DB080E
:10542000DB00D31A9D46080004F0BEF86E46032345
:10543000022200210130400030707370A2420DD270
:10544000287800280AD0531CDBB20135B0549C42A6
:1054500003D00232F154D2B2F0E722003100044806
:10546000FFF7AAFF431E9841C0B2BD46F8BDC04633
:10547000A8070020F0B50025012785B0184B0E00C5
:1054800069461F7004000095FFF744FC154B01A905
:105490000B806A3BFF3BCB716E3B0B72009B320073
:1054A00009334B800E4B8D714F7108711D70092EA1
:1054B0000FD00D4E092237700C4F200000953D8013
:1054C000FFF77AFF69462000FFF724FC3A88084975
:1054D00035702000FFF770FF012005B0F0BDC04619
:1054E000540B002009020000550C0020560C00202F
:1054F000550B0020F0B5CF7805000E0093B0022FB9
:1055000009D1C9882B48FFF7B5FF441EA041C4B29A
:10551000200013B0F0BD00F035FC310000F012FCAB
:10552000002803D0C417241AE40FF1E7012F0BD190
:10553000F2882149112A11D8D2B2002A0ED02800AF
:10554000FFF73AFF0124E3E70400032FE0D1B3782B
:10555000002B05D1F2881949032AEDD90A78EEE724
:10556000022B06D1B27916492800FFF74FFF04003D
:10557000CEE7012B02D1B2791249F5E7032BC7D14F
:10558000114B01A91868FFF7D4F9104B03A918684B
:10559000FFF7CFF90E4B05A91868FFF7CAF90D4BB5
:1055A00007A91868FFF7C5F96B460533DC77B279B0
:1055B00001A9D9E7A807002061A3000054A30000B7
:1055C00048A3000058A300000CA0800040A0800069
:1055D00044A0800048A0800037B5050048780C0042
:1055E0000B2810D800F0E0FC061B0F310F484D755A
:1055F00051546E71097801AA002906D10223118045
:105600002800FFF7B5FE01203EBD00231380324B7A
:105610001B78012B00D1137002230021F0E78A7858
:105620000023012A09D16A4693802C4B1B78012B59
:1056300000D11371022301AAEFE7274A1370284A09
:1056400093699B0B9B039361DDE78C78012C07D159
:10565000224B01AA1C70234B1B7813702300DCE73C
:1056600000208442D0D11C4B01301D4A1870936930
:105670009B0B9B039361C7E728008978FFF716FC13
:10568000C1E72800FFF736FFBEE70123164AC4E74B
:105690000B780020DB06B7D12800FFF7C1FC2A20D9
:1056A0000221A278104BFF301A600D4A13681C5C6F
:1056B00021434A241954FF34195D2938FF38014326
:1056C0001955D4E70123094AA7E78A78074B1A60DE
:1056D000B5E7002098E7C046CA070020D20700209F
:1056E000600C0020D2A20000580C00205C0C0020AE
:1056F0004B4BF7B51C780700002C00D083E0494ED7
:1057000033689B8B1B070ED521002000FFF738F96B
:10571000326810231100FF31887A03438B72424BA9
:105720001C600823938333689A8B52071FD5042289
:105730009A833E4A1378002B0AD01378013BDBB2E0
:1057400013701378002B03D101211620FEF7B0FB54
:10575000374A1378002B0AD01378013BDBB2137061
:105760001378002B03D101211520FEF7A1FB33682C
:10577000FF331A7AD2061ED510221A7259793032A6
:105780000A435A7160232B4938000A781A423BD1E8
:10579000FFF722FF3368FF33002838D08022997941
:1057A00052420A439A711A7A520604D540221A725A
:1057B000597A0A435A72336800241D8C01239D4391
:1057C000EDB20193E1B2002D1DD02B002341019ACF
:1057D000134215D02300326808335B01D318DA79FD
:1057E000D20702D4DB799B0707D5134BA200D05810
:1057F000002810D003681B689847019BA3409D4375
:105800000134092CDED1F7BDFFF772FBC2E720217E
:105810000A4A9171C7E73800FFF794FAEDE7C046EE
:10582000550C0020600C0020580C0020C9070020F7
:10583000C807002094090020AC070020FF50004159
:1058400010B50248FFF754FF10BDC046A80700205E
:10585000014B024A1A607047600C00200050004162
:105860000120704710B50368014A1B6A984710BDB4
:10587000130400000300FC33D96F9A6F914203D0E8
:10588000DB6FC018007D704701204042FBE710B578
:1058900004000069FEF72AFD22000023FC32936712
:1058A000D3679E229200A4186366A36610BDF023FE
:1058B0001B011940802306209B0099420AD0013326
:1058C000FF330130994205D0802300205B009942CC
:1058D00000D1053070470F2001400020012903D07E
:1058E0000239481E8141481C70470000B923F0B5B9
:1058F000182785B002919B000400C05C3B00082182
:105900004343324E1500F3185956FEF7FDFA304B5B
:105910000821E05C3B004343F3185956FEF7F4FAC4
:105920002C4BE25C0393022A09D11133E05CFF287F
:1059300005D008214743F7197956FEF7E5FABA274B
:10594000BF00E05DFF2819D00121FEF781FA18227F
:10595000E35D21495A43B356B618DB015818BB2101
:10596000890060501D4901225B18BC2189006350E9
:1059700071688A40BD21890062501A600122029B31
:1059800011002069FEF79AFE29002000FFF78FFF23
:10599000290006002000FFF79EFFF0221540303D51
:1059A0006A42554103003100206901220095FEF74B
:1059B0006DFC0B4B2069E25C039BE15CFEF783FC12
:1059C0002069FEF7A0FC05B0F0BDC046A8A000000D
:1059D000E5020000E70200001844004114440041C1
:1059E000E6020000AF2210B504000021520003F0CF
:1059F00034FA23000022FC3320005A669A6610BD58
:105A0000F7B51D0008AB1B780400009309AB1B78A9
:105A10001600019300234360FA239B008360104B20
:105A20000F00083303601430FFF7DCFF20007D30E7
:105A3000FF30FFF7D7FFB9239B002761E654094BDE
:105A4000009AE554084B2000E254019A074BE254B7
:105A5000BA22E93BFF3B9200A3541032A354FEBD8F
:105A600074A30000E5020000E6020000E702000067
:105A70000300FC33586E9B6EC01A01D55F30FF30B7
:105A8000704710B5040020007D30FF30FFF7F0FFB5
:105A90000028F8D12069FEF740FC10BD10B5143085
:105AA000FFF7E6FF10BD0300FC33596E9A6E91427A
:105AB00005DB5A6E986E801A5E30FF307047986E24
:105AC0005B6EC01A0138F9E710B57D30FF30FFF783
:105AD000EAFF10BD70B504000069FEF73AFC00282B
:105AE00005D02069FEF745FC2069FEF737FC2069E8
:105AF000FEF71FFC002824D025002069FEF739FCA2
:105B0000AF21FC350600A86F4900013000F0DCFA37
:105B1000EB6F994203D0AB6FE3181E75A967BA23E8
:105B20009B00E35CFF2B0CD020001430FFF7BBFF81
:105B3000092806DCBB23BD229B009200E358A25833
:105B40001A602069FEF710FC00281DD020007D306F
:105B5000FF30FFF78DFF002825D09E239B00E6181D
:105B6000B26E736E9A421BD0BE22AF21B36EB06E7E
:105B7000E3185200013049009D5C00F0A5FAB166BF
:105B80002069E9B2FEF7F9FB2069FEF7D7FB002890
:105B900005D02069FEF7D6FB2069FEF7C6FB70BD75
:105BA00001256D42ECE72069FEF7F3FBECE700000E
:105BB000F7B5040000690E00FEF7D6FB002847D1B8
:105BC000AF277F009E239B00E518686EAB6E3900FF
:105BD0000130019300F078FA019B994224D1EFF350
:105BE0001083DB070ED4204B5B68DB05DA0D002B3E
:105BF000E8D0103A53B212060DD49B081B4AC033AA
:105C00009B009B582069FEF7AFFB0028DAD02000EC
:105C1000FFF760FFD6E70F221340083B144A9B08AA
:105C20009B009B181B68EDE7AF21686E49000130AF
:105C300000F04AFAAB6E994205D0BE226B6E52005C
:105C4000E3189E5469662069FEF79FFB0120FEBDA4
:105C500020007D30FF30FFF70BFF0028B0D131006E
:105C60002069FEF78AFBF1E700ED00E000E100E0CB
:105C70001CED00E070B50500FC35EA6FAB6F040069
:105C80009A421DD0AF21EB6F4900C318E86F1E7D0B
:105C9000013000F019FAE967BA239B00E35CFF2B9F
:105CA0000CD020001430FFF7FEFE0A2806DDBC23CE
:105CB000BD229B009200E358A2581A60300070BDCC
:105CC00001267642E8E7704710B5FEF70DF803F0BD
:105CD00083F8FFF7F8FF0120FDF718FF094C2000BB
:105CE000FFF752F82000FFF7C7F8FCF707FAFCF7B8
:105CF00043FAFDF72BFF044B002BF8D000E000BF68
:105D0000F5E7C046A80700200000000010B503F02A
:105D100087F810BD10B503F08DF810BD70B50E00FA
:105D200000254468002C0BD02368310020005B68FC
:105D30009847002802DBE4682D18F3E701256D423F
:105D4000280070BD70B50D004468002C08D0236891
:105D5000290020009B689847002802D1E468F4E7F6
:105D6000200070BD70B50D004468002C08D0236879
:105D7000290020001B689847002802D1E468F4E756
:105D8000200070BD064A0123116810B50C000548BB
:105D90001C40194203D1044944600180136010BDC6
:105DA000640D0020680D00200204000070B504009E
:105DB000012320CC00212A782000134380222B705D
:105DC000520003F04AF8AB78DB07FCD4AB789B07B2
:105DD000F9D46C6270BD00001F22144B70B51B68B3
:105DE000590B9C0C9B0111405B0F22401F2900D1D5
:105DF0001A391F2A00D1023A072B00D1043B1F2574
:105E000000688E01048D0A492A40214031430185F2
:105E1000018D14000A00AA4322430285028D190352
:105E2000044B13400B43038570BDC04624608000C3
:105E30003FF8FFFFFF8FFFFF030010B508001900B8
:105E400002F0A6FF10BD0000F0B500278DB0041CC5
:105E500000F050F8254B051CDF577B1C0BD0211C94
:105E6000201C01F015F8061E05D10021201C00F0B1
:105E700081F9002802D1281C0DB0F0BD0123029346
:105E80001B4B201C03930A9602F076FE002200238F
:105E90000690079104900591002F15D0100019006D
:105EA00001F0BCFB08900991022F0FD102F07EFF98
:105EB000212303600A9B0193002B10D108980999B4
:105EC00002F0A2FE051CD6E70892099302A800F092
:105ED00069F80028EAD00A9B0193002BEED002F06B
:105EE00065FF0A9B01930360E8E7C0469800002025
:105EF000A8A30000FF21420070B50300041C520853
:105F0000C9058A423AD2002A37D000283FDBC5159E
:105F100001420BD1802109040A00024001423DD117
:105F20005B00100001320B42FAD02D1A5B025A0AB4
:105F3000802328001B047F381343EA0725D58022DD
:105F400019210026002540105B005204AC189C4229
:105F500002DCA5181B1BB61801395B00520800298A
:105F6000F4D1002B02D0012301369E43FC239B0574
:105F70009C4676106644C005801970BD011C00F077
:105F8000A5FC211C00F03CF9F7E75B00D7E7011CFA
:105F900000F0B6FD011C00F0CFFAEEE70120404210
:105FA0002D1AC3E70020704702B471464908490022
:105FB000095C49008E4402BC7047C0460022430879
:105FC0008B4274D303098B425FD3030A8B4244D3C1
:105FD000030B8B4228D3030C8B420DD3FF22090203
:105FE00012BA030C8B4202D31212090265D0030BC2
:105FF0008B4219D300E0090AC30B8B4201D3CB03B8
:10600000C01A5241830B8B4201D38B03C01A5241F9
:10601000430B8B4201D34B03C01A5241030B8B42FB
:1060200001D30B03C01A5241C30A8B4201D3CB02E6
:10603000C01A5241830A8B4201D38B02C01A5241CB
:10604000430A8B4201D34B02C01A5241030A8B42CE
:1060500001D30B02C01A5241CDD2C3098B4201D3E6
:10606000CB01C01A524183098B4201D38B01C01A64
:10607000524143098B4201D34B01C01A52410309DB
:106080008B4201D30B01C01A5241C3088B4201D38A
:10609000CB00C01A524183088B4201D38B00C01A37
:1060A000524143088B4201D34B00C01A5241411A5E
:1060B00000D20146524110467047FFE701B500206B
:1060C00000F006F802BDC0460029F7D076E7704719
:1060D0007047C0468446101C62468C46191C6346B5
:1060E00000E0C0461FB501F02FFE002801D40021BA
:1060F000C8421FBD10B501F079FD4042013010BD0E
:1061000010B501F021FE002801DB002010BD0120A8
:1061100010BDC04610B501F017FE002801DD0020BB
:1061200010BD012010BDC04610B501F09BFD002838
:1061300001DC002010BD012010BDC04610B501F0EB
:1061400091FD002801DA002010BD012010BDC046DD
:106150008446081C6146FFE71FB500F06DFB002870
:1061600001D40021C8421FBD10B500F0F1FA404231
:10617000013010BD10B500F05FFB002801DB0020EE
:1061800010BD012010BDC04610B500F055FB002821
:1061900001DD002010BD012010BDC04610B500F08B
:1061A000FFFA002801DC002010BD012010BDC04610
:1061B00010B500F0F5FA002801DA002010BD01202A
:1061C00010BDC04670B500220C4B04000D00FFF757
:1061D000B5FF002804D12000290002F041FC70BD69
:1061E000064B00222000290002F08AF802F038FC59
:1061F00080231B069C466044F1E7C0460000E04156
:10620000F0B54646D6464F464D024202C0B5520A48
:106210006E0A4700B0463F0E4E00C40FD0009446B1
:106220003B008246360EC90FAD098C426DD0B81BBB
:10623000814600284DDD002E00D188E0FF2F5AD086
:106240008023DB041D434B4601221B2B0ADC2B0061
:106250004A464946D3402022521A95402A00551EEC
:10626000AA411A4353469A1A530100D4B9E0920145
:106270009609300002F050FD05388640874200DD67
:10628000D4E03300C71B20200137FB40C71BBE40B2
:106290003200561EB24100271A43530704D00F2381
:1062A0001340042B00D00432530100D49CE07B1C2B
:1062B000FE2F00D19AE09201520A9446DBB2D80533
:1062C0006346E407184320431CBC90469946A24607
:1062D000F0BD002849D0F31B002F00D0B6E0524695
:1062E000002A60D0013B002B00D1FCE0FF2E00D043
:1062F000B4E00C004246002A78D08020C00310434E
:106300004202530A9C46FF23D9E7B91B002971DDDD
:10631000002E3FD0FF2FEED08023DB041D4301224F
:106320001B2907DC2A002023CA40591A8D406B1E06
:106330009D412A435244530153D50137FF2F55D075
:1063400001237B49134052080A401A43A5E7002D58
:106350002CD001235B429C46E1444B46002B00D1EC
:10636000ADE0FF2F00D06EE7C5E7FE207E1C304277
:1063700060D1002F00D093E05246002A00D1B6E051
:10638000002D9CD0521B500100D4C3E053460C009A
:10639000EA1A82E7002D09D00139002900D18BE0EB
:1063A000FF2FBCD1A7E70C0042463700FF2FA2D039
:1063B0005202530A9C46FBB281E7FE210137394263
:1063C00065D1002B7ED1002800D1AAE0002D00D19C
:1063D00075E72A0052440027530102D5554B013777
:1063E0001A40530700D05AE7D208DFE70022FF2304
:1063F000944664E70029E0D0F31B002F3ED0FF2E27
:1064000000D177E780220100D20411438A4601229D
:106410001B2B08DC524620215046DA40CB1A98400C
:10642000431E984102433700521984E7414A3F1AFC
:10643000324032E753465E1B73012DD4002E00D04C
:1064400017E7002200240023944638E7FF2E00D1EE
:106450004FE780225046D2041043824601221B2B74
:1064600008DC524620245046DA40E31A9840431E86
:10647000984102430C003700AA1AF5E6002893D091
:10648000013B002B4FD0FF2EC1D1424633E7FF2FF7
:10649000ACD055446A08A4E753460C00EE1AE8E66F
:1064A0005346002B28D1002D00D022E78023DB03A8
:1064B0009C460024FF2302E72A0052443BE7534650
:1064C0005A1BD1E6002800D114E7002D00D112E7B5
:1064D0008023DB031A4200D10DE74146194200D068
:1064E00009E7424607E70C003700AA1ABCE6002D70
:1064F00013D00C00C446E2E6002D00D1FBE6802359
:10650000DB031A4200D1F6E64046184200D0F2E61C
:106510000C00EFE6002A00D063E700220024944636
:10652000CDE6C446CBE62A003700524403E7C04616
:10653000FFFFFF7DFFFFFFFBF0B54F464646D64607
:106540004502C0B547000C1C6D0A3F0EC60F002F58
:1065500066D0FF2F6CD00023EA00802599469A462A
:10656000ED0415437F3F60026100430A9846090E1F
:10657000E40F002948D0FF2910D08022D800D2048F
:106580000243904600207F394A4633007F1A024377
:106590006C4992008A586340DBB29746002B6DD15C
:1065A0000220FF3F33E000239846260045468246FE
:1065B0005346022B00D17FE0032B00D194E0012B46
:1065C00017D038007F3000285FDD6B0704D00F2321
:1065D0002B40042B00D004352B0103D538005A4B37
:1065E00080301D40FE2867DCAD016D0AC0B202E0BC
:1065F0001E0000200025C0052843F60730431CBCC0
:1066000090469946A246F0BD002B2BD101204A4668
:1066100033004E49024392008A586340DBB29746EA
:10662000002D13D104239946033B00279A469AE78D
:10663000002D05D108239946063BFF279A4692E78D
:106640000C239946093BFF279A468CE7280002F065
:1066500063FB7627431F9D4000237F4299469A465D
:106660003F1A80E7180002F057FB4246431F76218D
:106670009A404942091A9046002085E7FF210320ED
:1066800082E71E00FF200025B5E701231B1A1B2B04
:10669000AFDC9E372900BD40D9406A1E95410D43AD
:1066A0006B0704D00F232B40042B00D004356B0163
:1066B00044D5012000259EE7FF2000259BE780258B
:1066C0000026FF20ED0396E7002398468020C003B4
:1066D000054209D04346034206D1454605436D02B3
:1066E0002600FF206D0A86E78020C00305436D0267
:1066F000FF206D0A7FE741466A014801824219D2B4
:106700001B210025013F012614006D005200002CC2
:1067100001DB904201D8121A354301390029F3D127
:10672000501E824138007F301E001543002800DDD6
:106730004BE7AAE71A210125121AE4E7AD01002070
:106740006D0A58E7B0A30000FFFFFFF7F0A30000B9
:1067500070B542004E024C0045026D0A120EC30F86
:10676000760A240EC90FFF2A0FD0FF2C11D001206A
:10677000A24200D070BDB542FCD18B420DD0002AA0
:10678000F8D12800451EA841F4E70120002DF1D1E1
:10679000EBE70120002EEDD1E9E70020EAE7C04653
:1067A000F0B5420046024D024C00C30F760A120EAD
:1067B0006D0A240EC80FFF2A1FD0FF2C10D0002A0C
:1067C0001FD171427141002C01D1002D1ED0002932
:1067D0000ED183421ED00221581E08400138F0BD60
:1067E000002D26D1002AF4D1714271410029F0D048
:1067F0000028F4D101204042F1E7002E19D1FF2CEE
:10680000EED0002CE5D1002DE3D1E4E70020002EEE
:10681000E5D0E0E7A24205DCEADBAE4202D8E7D3EE
:106820000020DCE741424141484202210840013852
:10683000D5E702204042D2E7F0B5420046024D02C1
:106840004C00C30F760A120E6D0A240EC80FFF2AE1
:106850000DD0FF2C0FD0002A23D171427141002CA2
:106860000FD1002D0DD10020002E14D00DE0002EF0
:1068700010D1FF2C15D1002D0CD1002A03D171426B
:106880007141002908D1834210D00221581E0840CE
:10689000013800E00220F0BD0028FCD10120404278
:1068A000F9E7002CEFD1002DEDD1EEE7A24205DC97
:1068B000F2DBAE4202D8EFD30020ECE74142414187
:1068C0004842022108400138E5E7C046F8B557467E
:1068D0004E464546DE464402E0B545000F1C640ABC
:1068E0002D0EC60F002D47D0FF2D4DD00023802048
:1068F0009A469B46E400C00404437F3D7802430A65
:1069000099467A00FB0F9846120E4B4644D0FF2A58
:1069100011D0D8008023DB040343994600207F3A3E
:10692000AD18474653467740691C0F2B3FD8724A33
:106930009B00D3589F46FF35002B00D079E052468C
:1069400002231A4392460220EBE747464C46834611
:106950005B46022B28D0032B00D1C6E0012B4FD180
:1069600000200024C005FF07204338433CBC90466C
:106970009946A246AB46F8BD002C71D104239A4635
:10698000033B00259B46B9E7002C63D108239A46B8
:10699000063BFF259B46B1E7002B50D15246013301
:1069A0001A4392460120BCE7FF200024DAE748465C
:1069B000260C2404220C0404240C4B4620001B0C3F
:1069C000504374435A435E431219030C9B189C4274
:1069D00003D9802252029446664400041A04000C33
:1069E00012189401601E84411B0C920E9B191443D3
:1069F0009B011C431B0172D50120630804401C430A
:106A000008007F3000283CDD630704D00F232340BB
:106A1000042B00D00434230103D580310800374B08
:106A20001C40FE28C0DCA401640AC0B29AE737000B
:106A30008EE7524603231A439246032071E74846E5
:106A400002F06AF94A46431F9A402D1A91460020E7
:106A5000763D66E70C239A46093BFF259B464DE7AA
:106A6000200002F059F97625431F9C4000236D4217
:106A70009A469B462D1A41E780240027FF20E40315
:106A800070E701231B1A1B2B00DD69E79E312000F4
:106A90008C40D840631E9C410443630704D00F23FD
:106AA0002340042B00D0043463011AD501200024B4
:106AB00058E78020C003044209D04B46034206D168
:106AC0004C46044364024746FF20640A4AE780209C
:106AD000C003044364023700FF20640A42E7290030
:106AE0008EE7A4010020640A3CE78020C003044331
:106AF0006402FF20640A35E730A40000FFFFFFF7BF
:106B0000F0B54646D6464F4643025B0ADA00944645
:106B10004A02C0B54400560A051CB046240E4E0079
:106B200092091F0020009246ED0F360EC90FFF2E6E
:106B300000D17FE0012251408D4251D0A21B9146ED
:106B4000002A00DC7EE0002E00D199E0FF2C00D16D
:106B50008CE080235246DB041A4392464A460123C6
:106B60001B2A08DC53462021D340891A52468A400A
:106B7000511E8A4113436246D31A5A0100D4F3E0EE
:106B80009B019E09300002F0C7F805388640844218
:106B900000DDF7E03200041B20200134E240041B3A
:106BA000A64033005E1EB341002413435A0704D0AD
:106BB0000F221A40042A00D004335A0100D4D6E030
:106BC000621CFE2C00D1DAE09B015F0AD0B2C00546
:106BD0003843ED0728431CBC90469946A246F0BDB9
:106BE000A21B9146002A63DD002E00D199E0FF2C04
:106BF0003CD080235246DB041A4392464A46012386
:106C00001B2A08DC53462021D340891A52468A4069
:106C1000511E8A41134363445A0100D4A4E0013455
:106C2000FF2C00D1ABE0012297491A405B080B40D2
:106C30001343BBE7002A32D08D4235D0FF225242A7
:106C40009146A1444A46002A51D0301B002C00D066
:106C50009CE06346002B00D1DFE00138002800D122
:106C6000F7E0FF2E00D099E00D004346002B00D145
:106C700085E08027FF031F437F02FF207F0AA6E7EE
:106C80005246002A74D0012252429046C1444A46DC
:106C9000002A00D1C8E0FF2C00D05FE7E6E7012220
:106CA0005140A94200D049E7FF2252429146A144F7
:106CB0004A46002A43D0311B002C00D18CE0FF2E25
:106CC00000D192E080236246DB041A4394460123FC
:106CD0001B2909DC202063466246CB40411A8A40CA
:106CE0001100481E81410B433400534494E7FE22B7
:106CF000661C324264D1002C00D082E06346002B37
:106D000000D1ABE05346002B00D160E7634652460A
:106D10009B1A5A0100D4AAE0634652460D00D31ACA
:106D200044E75246002A23D0012252429046C144F1
:106D30004A46002A75D0FF2C00D05FE796E7FE2672
:106D40000134264253D1002872D16346002B00D172
:106D500093E05346002B00D139E7634400245A01E5
:106D600002D54A4A013413405A0700D020E7DB0815
:106D7000FF2C00D17AE75B025F0AE0B227E7FF2031
:106D8000002724E7414B241A33400FE7FF2E00D1A0
:106D90006AE780236246DB041A43944601231B28DA
:106DA00009DC202463466246C340201A824010005A
:106DB000441EA041034352460D003400D31ADCE6C2
:106DC000634652469E1A730117D4002E00D0D9E6AE
:106DD000002500200027FAE66346002B44D0013945
:106DE00000294CD0FF2E00D071E743463EE7FF2C30
:106DF000C5D0524662445308B6E763460D00D61A22
:106E0000C0E66246002A16D15346002B00D02BE77D
:106E100080270025FF20FF03D9E60D0043463400FC
:106E2000A6E753466344F7E6634652469B1AA4E638
:106E30006246002AD9D05246002A00D116E78022A5
:106E4000D203134200D111E74046104200D00DE7B3
:106E50000AE752460D003400D31A8EE65346002B43
:106E600008D00D004746B2E64346340080E7002BC9
:106E700000D079E700250027A9E64746A7E6534654
:106E800034006344C8E6C046FFFFFF7DFFFFFFFB01
:106E900042024B0240004900520A5B0A090E000EF2
:106EA000FF2806D00020FF2902D11800431E984178
:106EB0007047FE38002AFBD1F4E7C04670B50028C1
:106EC00013D0C317C5185D40C40F280001F024FF7C
:106ED0009E2301001B1A962B0FDC082801DD0839C0
:106EE0008D406D026D0AD8B202E00024002000251A
:106EF000C0052843E407204370BD992B0BDD052214
:106F00002E00121AD64002001B3295402800451E62
:106F1000A84135000543052901DD4A1F95402A0097
:106F2000084E3240680709D00F202840042805D0B9
:106F30000432500102D59F2332405B1A9201550A58
:106F4000D8B2D5E7FFFFFFFBF0B54F46D646464621
:106F50000D0001001800C0B517002B035A0A4B0F93
:106F60001343CA00914602036E004100520AEC0F1F
:106F70007D0F1543760D490DC00F8246AC46FF00CC
:106F8000721A844200D198E0002A00DC81E00029D6
:106F900000D1B6E0C9498E4200D172E180212800BB
:106FA000090408438446382A00DD5EE11F2A00DD1B
:106FB000EEE1202039006546801A8740D1408540A7
:106FC0000D4339004F1EB9416746D7402943DB1BAB
:106FD0004A46551AA945894149425B1A9846434693
:106FE0001B0200D4CCE043465B025B0A9846434652
:106FF000002B00D12CE1404601F08EFE0100083943
:10700000202228004346521A8B40D0408D40034333
:107010008E4200DD17E18E1B721C1F2A00DDA7E1E6
:10702000202118002E00891A8D408840D640D34078
:10703000691E8D4130439846002605436B0709D0F1
:107040000F232B40042B05D02B1DAB42AD416D42CD
:10705000A8441D0043461B0200D494E0974B721CC9
:107060009A4200D19DE04146954BED0819400B0036
:10707000520549075B0229431B0B520D12051343AE
:10708000E4072343080019001CBC90469946A24619
:10709000F0BD002A43D08A1B002E00D02AE14C46C6
:1070A0001C4300D1D1E1541E012A00D11FE2834DBF
:1070B000AA4200D172E2220023E1002A00DC98E01B
:1070C000002942D07D498E4200D1DAE0802128009B
:1070D000090408438446382A00DD29E11F2A00DC20
:1070E00087E1110065462039CD40202A04D0402098
:1070F0006146821A91400F4339004F1EB9410D433A
:107100001BE12900394300D1B5E0511E012A00D10D
:10711000ABE16A48824200D1B2E10A0043E7694923
:10712000751C0D4200D0CFE0002E00D093E14946FF
:10713000194300D1D1E16146394300D0E3E149462A
:107140005807C9080143DB0826E02900394300D16C
:1071500091E0511E012A05D05848824200D18FE1AA
:107160000A00B8E73D004D444D45894163449846C7
:1071700049428844434602261B0200D5EBE0013E0B
:107180006B0700D05CE74346E9085A071143320019
:10719000DB084A48824221D01B0352051B0B520DCB
:1071A0006CE70023002169E72A003A4369D04A4688
:1071B0005807D108DA0880231B0308431A4207D076
:1071C0002900ED081D4203D12A00FF084807384373
:1071D000430FC1005B07C908194313000A001A4393
:1071E00000D113E28022120313431B03334A1B0B0B
:1071F00044E7002A4BD08A1B002E00D1E7E02F483D
:10720000814200D195E1802000040343382A00DD4B
:1072100043E11F2A00DDDBE120201D004E46801ADD
:107220008540D64035434E4686403000D340461E0A
:10723000B0419C440543ED19BD429B415B42634410
:1072400098460E007FE01E4A761A13409846F5E6EF
:10725000280001F061FD010018311F2900DCCFE694
:107260002B00083883400025D2E662463A431100DD
:107270004F1EB941ACE649465807C9080143DB082F
:1072800087E749465A07C9081143DB08A6E70D49B5
:10729000701C084200D0BBE0002E00D014E149462B
:1072A000194300D175E12900394300D07EE14946F8
:1072B0005807C9080143DB086EE7C046FF07000016
:1072C000FFFF7FFFFE0700004946CD1B6146581AAD
:1072D000A94589414942884601004046091A884625
:1072E000090200D5A6E04146294300D07FE60023ED
:1072F000002451E7C74CA14200D1C7E080242404F8
:107300002343382A54DC1F2A00DDCCE020244846E1
:10731000A41A1D004E46A040D640A5400400D3400C
:1073200062463543661EB441D31A9C46254344E069
:1073300062463A4315006F1EBD414D444D4589419B
:1073400049428846984443461B0200D418E7B14B93
:1073500001369E4249D04246AF4B01211A401300EC
:107360006A080D401543D9075B0898460D4365E64A
:1073700018001F3EF040202A03D040218A1A934073
:107380001D43691E8D410023002698460543F7E6FC
:10739000110065462039CD40202A04D040206146A6
:1073A000821A91400F4339004F1EB94129430FE61D
:1073B0004A4613431D006B1E9D417D1BAF429B41FE
:1073C00062465B42D31A984654460E0007E648468A
:1073D000184300D1B3E0501E012A00D10DE18D4DBC
:1073E000AA4200D1A5E0020010E7320000230021EC
:1073F00044E620213800891A65468F408D40D040F0
:10740000791E8F4105433D436746D740DB1994E71A
:10741000804A904200D1ECE039004944494592410C
:10742000634452429B18DD0749085B0898460600F2
:107430000D43A5E64A46BD1AAF428941624649421C
:10744000D31A5B1A98465446D1E56C07F9082143D4
:10745000EB0804009DE64A461A4375D1614639435C
:1074600014D1802300241B03BCE64A46D51BA94542
:107470008941624649429B1A5B1A98460126AEE54D
:107480004A46D1085A071143DB08A7E66346F908C4
:107490005A0754461143DB08A0E64A4613431D0031
:1074A0006B1E9D41C7E614001E00203CE640202ACA
:1074B00005D04024A21A93404A461A4391464D46AD
:1074C0006B1E9D41354378E74A461A4300D06BE670
:1074D0006B07F9081943EB0880E66146394354D03D
:1074E0006346F9085C072143DB08040054E64A467A
:1074F000BD1AAF42894162464942D31A5B1A984687
:10750000040001266BE54A46D51BA9458941624620
:1075100049429A1A521A9046120232D54A46BD1A68
:10752000AF42894162464942D31A5B1A9846040029
:1075300084E56346F9085A071143DB084EE6F9086B
:1075400068070143EB0824E662463A4300D198E617
:107550004A46D1085A071143DA0880231B031A420E
:1075600008D06046C5081D4204D154462A00F908D7
:10757000430719434B0FC9005B07C90819431300A0
:107580002CE64146294300D0FAE500230A000024F6
:1075900002E66B07F9081943EB08FDE56346F908B5
:1075A0005B07194363460400DB0817E63D004D44C2
:1075B00063444D45894198464942884443461B02ED
:1075C00000D4DDE54246144B01261A409046D7E52B
:1075D00010001E002038C640202A05D04020821A04
:1075E00093404A461A4391464D466B1E9D41354392
:1075F00021E602000023002140E54A46D519BD429C
:1076000089416344984649428844B3E50021014AD0
:107610000B0033E5FF070000FFFF7FFFF0B5574683
:107620004E464546DE46E0B5814605000C0348005F
:1076300092461F0085B0240B400DCE0F002859D074
:10764000874B984200D198E06B0FE4001C438023E5
:107650001B0423439846834BED009B460023994629
:10766000834400933C037B005046240B5B0DFF0FCB
:10767000002B67D07A4A934218D07A49420F8C4641
:10768000E40059461443802263441204CB1A144385
:107690009B46C200002033007B409A464B460F2B8E
:1076A00000D9EFE070499B00CB589F466F4B524684
:1076B0009C462243E344002A00D095E04946022339
:1076C0001943894600240220E5E700230024002511
:1076D00052461B052343D20713432800190005B067
:1076E0003CBC90469946A246AB46F0BD002400251E
:1076F0005B4BEDE74B462343984600D189E0002CD5
:1077000000D1E0E1200001F007FB010002000B398D
:107710001D235B1A49461000D940083884400B00ED
:107720004D4623439846854051483C03831A9B4667
:107730000023994600937B005046240B5B0DFF0FFE
:10774000002B97D15246224355D0002C00D1CAE1DC
:10775000200001F0E1FA02000B3A1D2301009B1A00
:1077600052460839DA408C40144352468A40414B15
:1077700058449B46834400208DE74B46234398465C
:1077800040D108239946063B00258346009369E7CC
:10779000B246009B022BA9D0032B00D111E2012B92
:1077A00093D0354A5A44002A00DC3CE16B0700D0F4
:1077B000A7E1ED084346DB0106D542462F4B1A40B0
:1077C00090468022D2005A442D4B9A428EDC43468A
:1077D000520558075C020543240B530D78E7BA465F
:1077E000A04615000090D4E74A4603231A43914669
:1077F000032052464FE74946012319438946002496
:10780000012048E70C239946093BA0468346009394
:1078100028E70423994600239B4601330025009363
:1078200020E7002380249A4600250D4B24034FE7D0
:10783000802341461B03194208D01C4206D11C4339
:107840002403BA461500064B240B41E78024434627
:1078500024031C432403B246014B240B38E7C046E3
:10786000FF07000001FCFFFF70A4000001F8FFFF0C
:107870000DFCFFFFF3030000FF030000FFFFFFFE0E
:10788000FE070000444500D216E100D111E10123BA
:107890005B429C462E0040460025E3442302140E22
:1078A0001C431B0C994623041F0C120249460092EC
:1078B0000197FEF709FC02007A430B04310C804665
:1078C00019438A420BD901235B429C460919E044C3
:1078D0008C4204D88A4202D9831E98460919881A14
:1078E0004946FEF7F1FB09048C4631046646019ACD
:1078F000090C4243030031438A4204D90919013B70
:107900008C4200D811E1891A4246009E12041A43A3
:10791000330C1F00100C9046029313043204160C13
:1079200032001B0C5A4303967B4346437843170CA3
:10793000BC469B1963449E4203D980267602B44616
:1079400060441E0C301816041B04360C9E1981422C
:1079500000D29CE000D197E0AE1B091AB5428041ED
:107960004042081A844200D111E14946FEF7ACFBBF
:10797000019A0B044243310C050019438A4207D98E
:107980000919013D8C4203D88A4201D9851E091983
:10799000881A4946FEF798FB09048C46310466466E
:1079A000019A090C4243030031438A4207D909195D
:1079B000013B8C4203D88A4201D9831E0919039ED8
:1079C000891A32002D041D43029F2B041B0C5A43BD
:1079D0007B439C46280C4643130CB44463447843D1
:1079E0009E4203D980267602B44660441E0C1204DF
:1079F0001B04120C30189B18814206D302D00123BD
:107A00001D43CEE6002B00D1CBE661186E1EA142CD
:107A100000D2A4E0814200D2C9E000D1D9E0350013
:107A2000EDE701256D420121891A382900DD4CE678
:107A30001F2900DC7FE01F235B429A1A4346D34094
:107A4000202904D04446654A5A44944025436A1E7E
:107A5000954107222B43150000241D401A4200D1F6
:107A6000A1E00F2200241A40042A00D198E01A1D38
:107A70009A429B415B42E4181300220200D48FE03B
:107A800001230024002523E6B54200D364E74346E2
:107A90005A1E009B9C4665441F009D429B415B42D1
:107AA0001B19C9188C423AD2884263D860D09046DC
:107AB00052E7AA4200D9EAE64346DE0758086B08B7
:107AC0001E43ED07EAE6484601F026F901000200F0
:107AD000153120321C2900DC1AE64B460838834059
